{
  "contractName": "FlightSuretyData",
  "abi": [
    {
      "constant": true,
      "inputs": [],
      "name": "INSURANCE_PAY_LIMIT",
      "outputs": [
        {
          "name": "",
          "type": "uint256"
        }
      ],
      "payable": false,
      "stateMutability": "view",
      "type": "function"
    },
    {
      "constant": true,
      "inputs": [],
      "name": "PARTICIPATION_FUND",
      "outputs": [
        {
          "name": "",
          "type": "uint256"
        }
      ],
      "payable": false,
      "stateMutability": "view",
      "type": "function"
    },
    {
      "inputs": [
        {
          "name": "firstAirline",
          "type": "address"
        }
      ],
      "payable": false,
      "stateMutability": "nonpayable",
      "type": "constructor"
    },
    {
      "payable": true,
      "stateMutability": "payable",
      "type": "fallback"
    },
    {
      "constant": false,
      "inputs": [
        {
          "name": "dataContract",
          "type": "address"
        }
      ],
      "name": "authorizeCaller",
      "outputs": [],
      "payable": false,
      "stateMutability": "nonpayable",
      "type": "function"
    },
    {
      "constant": false,
      "inputs": [
        {
          "name": "dataContract",
          "type": "address"
        }
      ],
      "name": "deauthorizeCaller",
      "outputs": [],
      "payable": false,
      "stateMutability": "nonpayable",
      "type": "function"
    },
    {
      "constant": true,
      "inputs": [],
      "name": "isOperational",
      "outputs": [
        {
          "name": "",
          "type": "bool"
        }
      ],
      "payable": false,
      "stateMutability": "view",
      "type": "function"
    },
    {
      "constant": false,
      "inputs": [
        {
          "name": "mode",
          "type": "bool"
        }
      ],
      "name": "setOperatingStatus",
      "outputs": [],
      "payable": false,
      "stateMutability": "nonpayable",
      "type": "function"
    },
    {
      "constant": false,
      "inputs": [
        {
          "name": "airline",
          "type": "address"
        }
      ],
      "name": "registerAirline",
      "outputs": [
        {
          "name": "",
          "type": "bool"
        },
        {
          "name": "",
          "type": "uint256"
        }
      ],
      "payable": false,
      "stateMutability": "nonpayable",
      "type": "function"
    },
    {
      "constant": true,
      "inputs": [
        {
          "name": "airline",
          "type": "address"
        }
      ],
      "name": "isAirline",
      "outputs": [
        {
          "name": "",
          "type": "bool"
        }
      ],
      "payable": false,
      "stateMutability": "view",
      "type": "function"
    },
    {
      "constant": false,
      "inputs": [
        {
          "name": "airline",
          "type": "address"
        },
        {
          "name": "flight",
          "type": "string"
        },
        {
          "name": "timestamp",
          "type": "uint256"
        }
      ],
      "name": "registerFlight",
      "outputs": [],
      "payable": false,
      "stateMutability": "nonpayable",
      "type": "function"
    },
    {
      "constant": false,
      "inputs": [
        {
          "name": "airline",
          "type": "address"
        },
        {
          "name": "flight",
          "type": "string"
        },
        {
          "name": "timestamp",
          "type": "uint256"
        }
      ],
      "name": "buy",
      "outputs": [],
      "payable": true,
      "stateMutability": "payable",
      "type": "function"
    },
    {
      "constant": false,
      "inputs": [
        {
          "name": "airline",
          "type": "address"
        },
        {
          "name": "flight",
          "type": "string"
        },
        {
          "name": "timestamp",
          "type": "uint256"
        }
      ],
      "name": "creditInsurees",
      "outputs": [],
      "payable": false,
      "stateMutability": "nonpayable",
      "type": "function"
    },
    {
      "constant": false,
      "inputs": [
        {
          "name": "airline",
          "type": "address"
        },
        {
          "name": "flight",
          "type": "string"
        },
        {
          "name": "timestamp",
          "type": "uint256"
        },
        {
          "name": "statusCode",
          "type": "uint8"
        }
      ],
      "name": "processFlightStatus",
      "outputs": [],
      "payable": false,
      "stateMutability": "nonpayable",
      "type": "function"
    },
    {
      "constant": true,
      "inputs": [],
      "name": "getInsureeCredit",
      "outputs": [
        {
          "name": "",
          "type": "uint256"
        }
      ],
      "payable": false,
      "stateMutability": "view",
      "type": "function"
    },
    {
      "constant": false,
      "inputs": [],
      "name": "pay",
      "outputs": [],
      "payable": false,
      "stateMutability": "nonpayable",
      "type": "function"
    },
    {
      "constant": false,
      "inputs": [],
      "name": "fund",
      "outputs": [],
      "payable": true,
      "stateMutability": "payable",
      "type": "function"
    }
  ],
  "bytecode": "0x60806040526001600260006101000a81548160ff02191690831515021790555034801561002b57600080fd5b50604051602080612b6883398101806040528101908080519060200190929190505050336000806101000a81548173ffffffffffffffffffffffffffffffffffffffff021916908373ffffffffffffffffffffffffffffffffffffffff16021790555060006003600201819055506001600360010160008373ffffffffffffffffffffffffffffffffffffffff1673ffffffffffffffffffffffffffffffffffffffff16815260200190815260200160002060000160006101000a81548160ff0219169083151502179055506000600360010160008373ffffffffffffffffffffffffffffffffffffffff1673ffffffffffffffffffffffffffffffffffffffff16815260200190815260200160002060000160016101000a81548160ff02191690831515021790555050612a03806101656000396000f3006080604052600436106100db576000357c0100000000000000000000000000000000000000000000000000000000900463ffffffff1680630e248a11146100e5578063110466ed146101405780631ab5adcb1461016f5780631b9265b81461019a5780632c388d5d146101b15780633cc0be9c146101f45780636873c21d146102595780638d2c39a81461029c578063a4bf718d146102c7578063b1c46d22146102f2578063b60d42881461034a578063bdfd987714610354578063c8820a70146103b6578063cd905dff14610449578063e7bdde3b14610478575b6100e36104ea565b005b3480156100f157600080fd5b50610126600480360381019080803573ffffffffffffffffffffffffffffffffffffffff16906020019092919050505061095e565b604051808215151515815260200191505060405180910390f35b34801561014c57600080fd5b5061016d6004803603810190808035151590602001909291905050506109ba565b005b34801561017b57600080fd5b50610184610a9b565b6040518082815260200191505060405180910390f35b3480156101a657600080fd5b506101af610aa7565b005b3480156101bd57600080fd5b506101f2600480360381019080803573ffffffffffffffffffffffffffffffffffffffff169060200190929190505050610ea3565b005b34801561020057600080fd5b50610257600480360381019080803573ffffffffffffffffffffffffffffffffffffffff16906020019092919080359060200190820180359060200191909192939192939080359060200190929190505050610fae565b005b34801561026557600080fd5b5061029a600480360381019080803573ffffffffffffffffffffffffffffffffffffffff1690602001909291905050506114a1565b005b3480156102a857600080fd5b506102b16115ad565b6040518082815260200191505060405180910390f35b3480156102d357600080fd5b506102dc6115b9565b6040518082815260200191505060405180910390f35b610348600480360381019080803573ffffffffffffffffffffffffffffffffffffffff16906020019092919080359060200190820180359060200191909192939192939080359060200190929190505050611603565b005b6103526104ea565b005b34801561036057600080fd5b50610395600480360381019080803573ffffffffffffffffffffffffffffffffffffffff169060200190929190505050611b50565b60405180831515151581526020018281526020019250505060405180910390f35b3480156103c257600080fd5b50610447600480360381019080803573ffffffffffffffffffffffffffffffffffffffff169060200190929190803590602001908201803590602001908080601f0160208091040260200160405190810160405280939291908181526020018383808284378201915050505050509192919290803590602001909291905050506123b3565b005b34801561045557600080fd5b5061045e6125af565b604051808215151515815260200191505060405180910390f35b34801561048457600080fd5b506104e8600480360381019080803573ffffffffffffffffffffffffffffffffffffffff16906020019092919080359060200190820180359060200191909192939192939080359060200190929190803560ff1690602001909291905050506125c6565b005b600360010160003273ffffffffffffffffffffffffffffffffffffffff1673ffffffffffffffffffffffffffffffffffffffff16815260200190815260200160002060000160009054906101000a900460ff1615156105b1576040517f08c379a00000000000000000000000000000000000000000000000000000000081526004018080602001828103825260198152602001807f6169726c696e65206973206e6f7420726567697374657265640000000000000081525060200191505060405180910390fd5b600360010160003273ffffffffffffffffffffffffffffffffffffffff1673ffffffffffffffffffffffffffffffffffffffff16815260200190815260200160002060000160019054906101000a900460ff16151515610679576040517f08c379a00000000000000000000000000000000000000000000000000000000081526004018080602001828103825260208152602001807f6169726c696e652068617320616c72656164792070617274696369706174656481525060200191505060405180910390fd5b678ac7230489e800003273ffffffffffffffffffffffffffffffffffffffff163110151515610710576040517f08c379a00000000000000000000000000000000000000000000000000000000081526004018080602001828103825260208152602001807f6169726c696e65206d757374206861766520656e6f7567682062616c616e636581525060200191505060405180910390fd5b678ac7230489e800003414151561078f576040517f08c379a000000000000000000000000000000000000000000000000000000000815260040180806020018281038252601a8152602001807f6169726c696e65206d7573742066756e6420313020657468657200000000000081525060200191505060405180910390fd5b600260009054906101000a900460ff161515610839576040517f08c379a00000000000000000000000000000000000000000000000000000000081526004018080602001828103825260258152602001807f436f6e74726163742069732063757272656e746c79206e6f74206f706572617481526020017f696f6e616c00000000000000000000000000000000000000000000000000000081525060400191505060405180910390fd5b3273ffffffffffffffffffffffffffffffffffffffff163373ffffffffffffffffffffffffffffffffffffffff161415156108dc576040517f08c379a00000000000000000000000000000000000000000000000000000000081526004018080602001828103825260158152602001807f436f6e747261637473206e6f7420616c6c6f776564000000000000000000000081525060200191505060405180910390fd5b6108f5600160036002015461284890919063ffffffff16565b6003600201819055506001600360010160003273ffffffffffffffffffffffffffffffffffffffff1673ffffffffffffffffffffffffffffffffffffffff16815260200190815260200160002060000160016101000a81548160ff021916908315150217905550565b6000600360010160008373ffffffffffffffffffffffffffffffffffffffff1673ffffffffffffffffffffffffffffffffffffffff16815260200190815260200160002060000160009054906101000a900460ff169050919050565b6000809054906101000a900473ffffffffffffffffffffffffffffffffffffffff1673ffffffffffffffffffffffffffffffffffffffff163373ffffffffffffffffffffffffffffffffffffffff16141515610a7e576040517f08c379a000000000000000000000000000000000000000000000000000000000815260040180806020018281038252601c8152602001807f43616c6c6572206973206e6f7420636f6e7472616374206f776e65720000000081525060200191505060405180910390fd5b80600260006101000a81548160ff02191690831515021790555050565b670de0b6b3a764000081565b600080600760003273ffffffffffffffffffffffffffffffffffffffff1673ffffffffffffffffffffffffffffffffffffffff16815260200190815260200160002060010154111515610b88576040517f08c379a00000000000000000000000000000000000000000000000000000000081526004018080602001828103825260278152602001807f50617373656e6765722073686f756c64206e6f7420676574206372656469742081526020017f7061796f75742e0000000000000000000000000000000000000000000000000081525060400191505060405180910390fd5b600760003273ffffffffffffffffffffffffffffffffffffffff1673ffffffffffffffffffffffffffffffffffffffff168152602001908152602001600020600101543073ffffffffffffffffffffffffffffffffffffffff163110151515610c7f576040517f08c379a000000000000000000000000000000000000000000000000000000000815260040180806020018281038252602a8152602001807f436f6e747261637420616464726573732068617320696e73756666696369656e81526020017f742062616c616e63652e0000000000000000000000000000000000000000000081525060400191505060405180910390fd5b600260009054906101000a900460ff161515610d29576040517f08c379a00000000000000000000000000000000000000000000000000000000081526004018080602001828103825260258152602001807f436f6e74726163742069732063757272656e746c79206e6f74206f706572617481526020017f696f6e616c00000000000000000000000000000000000000000000000000000081525060400191505060405180910390fd5b3273ffffffffffffffffffffffffffffffffffffffff163373ffffffffffffffffffffffffffffffffffffffff16141515610dcc576040517f08c379a00000000000000000000000000000000000000000000000000000000081526004018080602001828103825260158152602001807f436f6e747261637473206e6f7420616c6c6f776564000000000000000000000081525060200191505060405180910390fd5b600760003273ffffffffffffffffffffffffffffffffffffffff1673ffffffffffffffffffffffffffffffffffffffff1681526020019081526020016000206001015490506000600760003273ffffffffffffffffffffffffffffffffffffffff1673ffffffffffffffffffffffffffffffffffffffff168152602001908152602001600020600101819055503273ffffffffffffffffffffffffffffffffffffffff166108fc829081150290604051600060405180830381858888f19350505050158015610e9f573d6000803e3d6000fd5b5050565b6000809054906101000a900473ffffffffffffffffffffffffffffffffffffffff1673ffffffffffffffffffffffffffffffffffffffff163373ffffffffffffffffffffffffffffffffffffffff16141515610f67576040517f08c379a000000000000000000000000000000000000000000000000000000000815260040180806020018281038252601c8152602001807f43616c6c6572206973206e6f7420636f6e7472616374206f776e65720000000081525060200191505060405180910390fd5b60018060008373ffffffffffffffffffffffffffffffffffffffff1673ffffffffffffffffffffffffffffffffffffffff1681526020019081526020016000208190555050565b6000600260009054906101000a900460ff16151561105a576040517f08c379a00000000000000000000000000000000000000000000000000000000081526004018080602001828103825260258152602001807f436f6e74726163742069732063757272656e746c79206e6f74206f706572617481526020017f696f6e616c00000000000000000000000000000000000000000000000000000081525060400191505060405180910390fd5b8485600360010160008273ffffffffffffffffffffffffffffffffffffffff1673ffffffffffffffffffffffffffffffffffffffff16815260200190815260200160002060000160009054906101000a900460ff161515611123576040517f08c379a000000000000000000000000000000000000000000000000000000000815260040180806020018281038252601e8152602001807f6169726c696e65206973206e6f742072656769737465726564207965742e000081525060200191505060405180910390fd5b600360010160008373ffffffffffffffffffffffffffffffffffffffff1673ffffffffffffffffffffffffffffffffffffffff16815260200190815260200160002060000160019054906101000a900460ff161515611210576040517f08c379a00000000000000000000000000000000000000000000000000000000081526004018080602001828103825260328152602001807f7468652063616c6c6572206169726c696e6520686173206e6f7420706169642081526020017f70617274696369706174696f6e206665652e000000000000000000000000000081525060400191505060405180910390fd5b8686868080601f0160208091040260200160405190810160405280939291908181526020018383808284378201915050505050508560066000611254858585612864565b6000191660001916815260200190815260200160002060000160009054906101000a900460ff161515156112f0576040517f08c379a000000000000000000000000000000000000000000000000000000000815260040180806020018281038252601c8152602001807f666c6967687420697320616c726561647920726567697374657265640000000081525060200191505060405180910390fd5b4281111515611367576040517f08c379a00000000000000000000000000000000000000000000000000000000081526004018080602001828103825260188152602001807f666c69676874206d75737420626520696e20667574757265000000000000000081525060200191505060405180910390fd5b6113a48a8a8a8080601f01602080910402602001604051908101604052809392919081815260200183838082843782019150505050505089612864565b9550608060405190810160405280600115158152602001600060ff1681526020018881526020018b73ffffffffffffffffffffffffffffffffffffffff1681525060066000886000191660001916815260200190815260200160002060008201518160000160006101000a81548160ff02191690831515021790555060208201518160000160016101000a81548160ff021916908360ff1602179055506040820151816001015560608201518160020160006101000a81548173ffffffffffffffffffffffffffffffffffffffff021916908373ffffffffffffffffffffffffffffffffffffffff16021790555090505050505050505050505050565b6000809054906101000a900473ffffffffffffffffffffffffffffffffffffffff1673ffffffffffffffffffffffffffffffffffffffff163373ffffffffffffffffffffffffffffffffffffffff16141515611565576040517f08c379a000000000000000000000000000000000000000000000000000000000815260040180806020018281038252601c8152602001807f43616c6c6572206973206e6f7420636f6e7472616374206f776e65720000000081525060200191505060405180910390fd5b6000600160008373ffffffffffffffffffffffffffffffffffffffff1673ffffffffffffffffffffffffffffffffffffffff1681526020019081526020016000208190555050565b678ac7230489e8000081565b6000600760003273ffffffffffffffffffffffffffffffffffffffff1673ffffffffffffffffffffffffffffffffffffffff16815260200190815260200160002060010154905090565b6000600260009054906101000a900460ff1615156116af576040517f08c379a00000000000000000000000000000000000000000000000000000000081526004018080602001828103825260258152602001807f436f6e74726163742069732063757272656e746c79206e6f74206f706572617481526020017f696f6e616c00000000000000000000000000000000000000000000000000000081525060400191505060405180910390fd5b3273ffffffffffffffffffffffffffffffffffffffff163373ffffffffffffffffffffffffffffffffffffffff16141515611752576040517f08c379a00000000000000000000000000000000000000000000000000000000081526004018080602001828103825260158152602001807f436f6e747261637473206e6f7420616c6c6f776564000000000000000000000081525060200191505060405180910390fd5b8484848080601f016020809104026020016040519081016040528093929190818152602001838380828437820191505050505050836000611794848484612864565b905060066000826000191660001916815260200190815260200160002060000160009054906101000a900460ff161515611836576040517f08c379a000000000000000000000000000000000000000000000000000000000815260040180806020018281038252601d8152602001807f466c69676874206973206e6f742072656769737465726564207965742e00000081525060200191505060405180910390fd5b8888888080601f016020809104026020016040519081016040528093929190818152602001838380828437820191505050505050876000611878848484612864565b9050670de0b6b3a764000034600760003273ffffffffffffffffffffffffffffffffffffffff1673ffffffffffffffffffffffffffffffffffffffff1681526020019081526020016000206000016000846000191660001916815260200190815260200160002054011115151561197d576040517f08c379a00000000000000000000000000000000000000000000000000000000081526004018080602001828103825260238152602001807f50617373656e676572206f766572626f756768742074686520696e737572616e81526020017f63652e000000000000000000000000000000000000000000000000000000000081525060400191505060405180910390fd5b60003273ffffffffffffffffffffffffffffffffffffffff163110151515611a33576040517f08c379a00000000000000000000000000000000000000000000000000000000081526004018080602001828103825260288152602001807f50617373656e676572206d757374206861766520736f6d652062616c616e636581526020017f20746f206275792e00000000000000000000000000000000000000000000000081525060400191505060405180910390fd5b611a708d8d8d8080601f0160208091040260200160405190810160405280939291908181526020018383808284378201915050505050508c612864565b985034600760003273ffffffffffffffffffffffffffffffffffffffff1673ffffffffffffffffffffffffffffffffffffffff16815260200190815260200160002060000160008b600019166000191681526020019081526020016000206000828254019250508190555060083290806001815401808255809150509060018203906000526020600020016000909192909190916101000a81548173ffffffffffffffffffffffffffffffffffffffff021916908373ffffffffffffffffffffffffffffffffffffffff1602179055505050505050505050505050505050565b600080600080600260009054906101000a900460ff161515611c00576040517f08c379a00000000000000000000000000000000000000000000000000000000081526004018080602001828103825260258152602001807f436f6e74726163742069732063757272656e746c79206e6f74206f706572617481526020017f696f6e616c00000000000000000000000000000000000000000000000000000081525060400191505060405180910390fd5b60018060003373ffffffffffffffffffffffffffffffffffffffff1673ffffffffffffffffffffffffffffffffffffffff16815260200190815260200160002054141515611cb6576040517f08c379a00000000000000000000000000000000000000000000000000000000081526004018080602001828103825260188152602001807f43616c6c6572206973206e6f7420617574686f72697a6564000000000000000081525060200191505060405180910390fd5b3285600360010160008273ffffffffffffffffffffffffffffffffffffffff1673ffffffffffffffffffffffffffffffffffffffff16815260200190815260200160002060000160009054906101000a900460ff16151515611d80576040517f08c379a000000000000000000000000000000000000000000000000000000000815260040180806020018281038252601d8152602001807f6169726c696e6520697320616c7265616479207265676973746572656400000081525060200191505060405180910390fd5b600360010160008373ffffffffffffffffffffffffffffffffffffffff1673ffffffffffffffffffffffffffffffffffffffff16815260200190815260200160002060000160019054906101000a900460ff161515611e6d576040517f08c379a00000000000000000000000000000000000000000000000000000000081526004018080602001828103825260328152602001807f7468652063616c6c6572206169726c696e6520686173206e6f7420706169642081526020017f70617274696369706174696f6e206665652e000000000000000000000000000081525060400191505060405180910390fd5b8660008060046003600201541015156120365760009150600090505b600360000160008473ffffffffffffffffffffffffffffffffffffffff1673ffffffffffffffffffffffffffffffffffffffff16815260200190815260200160002080549050811015611f99573273ffffffffffffffffffffffffffffffffffffffff16600360000160008573ffffffffffffffffffffffffffffffffffffffff1673ffffffffffffffffffffffffffffffffffffffff16815260200190815260200160002082815481101515611f3c57fe5b9060005260206000200160009054906101000a900473ffffffffffffffffffffffffffffffffffffffff1673ffffffffffffffffffffffffffffffffffffffff161415611f8c5760019150611f99565b8080600101915050611e89565b81151515612035576040517f08c379a000000000000000000000000000000000000000000000000000000000815260040180806020018281038252603b8152602001807f7468652063616c6c6572206169726c696e652068617320616c7265616479207681526020017f6f74656420666f722070617373656420696e206169726c696e652e000000000081525060400191505060405180910390fd5b5b60046003600201541015612199576001600360010160008c73ffffffffffffffffffffffffffffffffffffffff1673ffffffffffffffffffffffffffffffffffffffff16815260200190815260200160002060000160006101000a81548160ff021916908315150217905550600360000160008b73ffffffffffffffffffffffffffffffffffffffff1673ffffffffffffffffffffffffffffffffffffffff1681526020019081526020016000203290806001815401808255809150509060018203906000526020600020016000909192909190916101000a81548173ffffffffffffffffffffffffffffffffffffffff021916908373ffffffffffffffffffffffffffffffffffffffff1602179055505060019650600360000160008b73ffffffffffffffffffffffffffffffffffffffff1673ffffffffffffffffffffffffffffffffffffffff1681526020019081526020016000208054905095506123a1565b600360000160008b73ffffffffffffffffffffffffffffffffffffffff1673ffffffffffffffffffffffffffffffffffffffff1681526020019081526020016000203290806001815401808255809150509060018203906000526020600020016000909192909190916101000a81548173ffffffffffffffffffffffffffffffffffffffff021916908373ffffffffffffffffffffffffffffffffffffffff16021790555050612258600260036002015461298990919063ffffffff16565b600360000160008c73ffffffffffffffffffffffffffffffffffffffff1673ffffffffffffffffffffffffffffffffffffffff1681526020019081526020016000208054905010156122f55760009650600360000160008b73ffffffffffffffffffffffffffffffffffffffff1673ffffffffffffffffffffffffffffffffffffffff1681526020019081526020016000208054905095506123a0565b6001600360010160008c73ffffffffffffffffffffffffffffffffffffffff1673ffffffffffffffffffffffffffffffffffffffff16815260200190815260200160002060000160006101000a81548160ff02191690831515021790555060019650600360000160008b73ffffffffffffffffffffffffffffffffffffffff1673ffffffffffffffffffffffffffffffffffffffff1681526020019081526020016000208054905095505b5b86869850985050505050505050915091565b6000806000600260009054906101000a900460ff161515612462576040517f08c379a00000000000000000000000000000000000000000000000000000000081526004018080602001828103825260258152602001807f436f6e74726163742069732063757272656e746c79206e6f74206f706572617481526020017f696f6e616c00000000000000000000000000000000000000000000000000000081525060400191505060405180910390fd5b61246d868686612864565b9250600091505b6008805490508210156125a7576007600060088481548110151561249457fe5b9060005260206000200160009054906101000a900473ffffffffffffffffffffffffffffffffffffffff1673ffffffffffffffffffffffffffffffffffffffff1673ffffffffffffffffffffffffffffffffffffffff16815260200190815260200160002090506000816000016000856000191660001916815260200190815260200160002054111561259a576125656002612557600384600001600088600019166000191681526020019081526020016000205461299f90919063ffffffff16565b61298990919063ffffffff16565b816001016000828254019250508190555060008160000160008560001916600019168152602001908152602001600020819055505b8180600101925050612474565b505050505050565b6000600260009054906101000a900460ff16905090565b6000600260009054906101000a900460ff161515612672576040517f08c379a00000000000000000000000000000000000000000000000000000000081526004018080602001828103825260258152602001807f436f6e74726163742069732063757272656e746c79206e6f74206f706572617481526020017f696f6e616c00000000000000000000000000000000000000000000000000000081525060400191505060405180910390fd5b8585858080601f0160208091040260200160405190810160405280939291908181526020018383808284378201915050505050508460006126b4848484612864565b905060066000826000191660001916815260200190815260200160002060000160009054906101000a900460ff161515612756576040517f08c379a000000000000000000000000000000000000000000000000000000000815260040180806020018281038252601d8152602001807f466c69676874206973206e6f742072656769737465726564207965742e00000081525060200191505060405180910390fd5b6127938a8a8a8080601f01602080910402602001604051908101604052809392919081815260200183838082843782019150505050505089612864565b945086600660008760001916600019168152602001908152602001600020600101819055508560066000876000191660001916815260200190815260200160002060000160016101000a81548160ff021916908360ff160217905550601460ff168660ff16141561283c5761283b8a8a8a8080601f016020809104026020016040519081016040528093929190818152602001838380828437820191505050505050896123b3565b5b50505050505050505050565b6000818301905082811015151561285b57fe5b80905092915050565b6000838383604051602001808473ffffffffffffffffffffffffffffffffffffffff1673ffffffffffffffffffffffffffffffffffffffff166c0100000000000000000000000002815260140183805190602001908083835b6020831015156128e257805182526020820191506020810190506020830392506128bd565b6001836020036101000a03801982511681845116808217855250505050505090500182815260200193505050506040516020818303038152906040526040518082805190602001908083835b602083101515612953578051825260208201915060208101905060208303925061292e565b6001836020036101000a038019825116818451168082178552505050505050905001915050604051809103902090509392505050565b6000818381151561299657fe5b04905092915050565b6000808314156129b257600090506129d1565b81830290508183828115156129c357fe5b041415156129cd57fe5b8090505b929150505600a165627a7a72305820138a7750ca613e1dae2066071bd0d436de0f720cc5877dc1c5edaf79d50f3ee00029",
  "source": "pragma solidity ^0.4.25;\n\nimport \"../node_modules/openzeppelin-solidity/contracts/math/SafeMath.sol\";\n\ncontract FlightSuretyData {\n    using SafeMath for uint256;\n\n    /********************************************************************************************/\n    /*                                       DATA VARIABLES                                     */\n    /********************************************************************************************/\n\n    address private contractOwner;                                      // Account used to deploy contract\n    mapping(address => uint256) private authorizedCallers;              // Addresses that can access this contract\n    bool private operational = true;                                    // Blocks all state changes throughout the contract if false\n    uint256 public constant PARTICIPATION_FUND = 10 ether;\n    uint256 public constant INSURANCE_PAY_LIMIT = 1 ether;\n\n\n    struct AirlineStatus {\n        bool registered;\n        bool participated;\n    }\n\n    struct Airlines {\n        mapping (address => address[]) airlineVotes;\n        mapping (address => AirlineStatus) airlineStatus;\n        uint256 count;\n    }\n    Airlines private airlines;\n\n    // Flight status codees\n    uint8 private constant STATUS_CODE_UNKNOWN = 0;\n    uint8 private constant STATUS_CODE_ON_TIME = 10;\n    uint8 private constant STATUS_CODE_LATE_AIRLINE = 20;\n    uint8 private constant STATUS_CODE_LATE_WEATHER = 30;\n    uint8 private constant STATUS_CODE_LATE_TECHNICAL = 40;\n    uint8 private constant STATUS_CODE_LATE_OTHER = 50;\n\n    struct Flight {\n        bool isRegistered;\n        uint8 statusCode;\n        uint256 updatedTimestamp;        \n        address airline;\n    }\n    mapping(bytes32 => Flight) private flights;\n\n    struct Passenger {\n        mapping(bytes32 => uint256) boughtFlightInsurance;\n        uint256 flightInsuranceCredit;\n    }\n    mapping(address => Passenger) private passengers;\n    address[] private passengerAddresses;\n\n    /********************************************************************************************/\n    /*                                       EVENT DEFINITIONS                                  */\n    /********************************************************************************************/\n\n\n    /**\n    * @dev Constructor\n    *      The deploying account becomes contractOwner\n    */\n    constructor\n                                (\n                                    address firstAirline\n                                ) \n                                public \n    {\n        contractOwner = msg.sender;\n        airlines.count = 0;\n        airlines.airlineStatus[firstAirline].registered = true;\n        airlines.airlineStatus[firstAirline].participated = false;\n    }\n\n    /********************************************************************************************/\n    /*                                       FUNCTION MODIFIERS                                 */\n    /********************************************************************************************/\n\n    // Modifiers help avoid duplication of code. They are typically used to validate something\n    // before a function is allowed to be executed.\n\n    /**\n    * @dev Modifier that requires the \"operational\" boolean variable to be \"true\"\n    *      This is used on all state changing functions to pause the contract in \n    *      the event there is an issue that needs to be fixed\n    */\n    modifier requireIsOperational() \n    {\n        require(operational, \"Contract is currently not operational\");\n        _;  // All modifiers require an \"_\" which indicates where the function body will be added\n    }\n\n    /**\n    * @dev Modifier that requires the \"ContractOwner\" account to be the function caller\n    */\n    modifier requireContractOwner()\n    {\n        require(msg.sender == contractOwner, \"Caller is not contract owner\");\n        _;\n    }\n\n    /**\n    * @dev Modifier that requires the \"ExternallyOwnedAccount\" account to be the function caller\n    */\n    modifier requireExternallyOwnedAccount()\n    {\n        require(msg.sender == tx.origin, \"Contracts not allowed\");\n        _;\n    }\n\n    /**\n    * @dev Modifier that requires the \"authorized\" account to be the function caller\n    */\n    modifier isCallerAuthorized()\n    {\n        require(authorizedCallers[msg.sender] == 1, \"Caller is not authorized\");\n        _;\n    }\n\n    /**\n    * @dev Modifier that checks the airline registration prerequisites\n    */\n    modifier isAirlineNotRegisteredAndFunded(address fundAirline, address registerAirline)\n    {\n        require(!airlines.airlineStatus[registerAirline].registered, \"airline is already registered\");\n        require(airlines.airlineStatus[fundAirline].participated, \"the caller airline has not paid participation fee.\");\n        _;\n    }\n\n    /**\n    * @dev Modifier that checks the flight registration prerequisites\n    */\n    modifier isAirlineRegisteredAndFunded(address fundAirline, address registerAirline)\n    {\n        require(airlines.airlineStatus[registerAirline].registered, \"airline is not registered yet.\");\n        require(airlines.airlineStatus[fundAirline].participated, \"the caller airline has not paid participation fee.\");\n        _;\n    }\n\n    /**\n    * @dev Modifier that checks the airline registration requirements\n    */\n    modifier canRegisterAirline(address airline)\n    {\n        if (airlines.count >= 4) {\n            bool isDuplicate = false;\n            for(uint c=0; c<airlines.airlineVotes[airline].length; c++) {\n                if (airlines.airlineVotes[airline][c] == tx.origin) {\n                    isDuplicate = true;\n                    break;\n                }\n            }\n            require(!isDuplicate, \"the caller airline has already voted for passed in airline.\");\n        }\n\n        _;\n    }\n\n    /**\n    * @dev Modifier that checks the passenger buy insurance requirements\n    */\n    modifier isFlightRegistered(\n                                    address airline,\n                                    string flight,\n                                    uint256 timestamp\n                                )\n    {\n        bytes32 flightKey = getFlightKey(airline, flight, timestamp);\n        require(flights[flightKey].isRegistered, \"Flight is not registered yet.\");\n        _;\n    }\n\n    /**\n    * @dev Modifier that checks the flight registration requirements\n    */\n    modifier canRegisterFlight(\n                                    address airline,\n                                    string flight,\n                                    uint256 timestamp\n                              )\n    {\n        require(!flights[getFlightKey(airline, flight, timestamp)].isRegistered, \"flight is already registered\");\n        require(timestamp > block.timestamp, \"flight must be in future\");\n        _;\n    }\n\n    /**\n    * @dev Modifier that checks the airline funding\n    */\n    modifier canFund()\n    {\n        require(airlines.airlineStatus[tx.origin].registered, \"airline is not registered\");\n        require(!airlines.airlineStatus[tx.origin].participated, \"airline has already participated\");\n        require(tx.origin.balance >= PARTICIPATION_FUND, \"airline must have enough balance\");\n        require(msg.value == PARTICIPATION_FUND, \"airline must fund 10 ether\");\n        _;\n    }\n\n    /**\n    * @dev Modifier that checks the flight insurance buy\n    */\n    modifier canBuy(\n                        address airline,\n                        string flight,\n                        uint256 timestamp\n                   )\n    {\n        bytes32 flightKey = getFlightKey(airline, flight, timestamp);\n        require(passengers[tx.origin].boughtFlightInsurance[flightKey] + msg.value <= INSURANCE_PAY_LIMIT, \"Passenger overbought the insurance.\");\n        require(tx.origin.balance >= 0 ether, \"Passenger must have some balance to buy.\");\n        _;\n    }\n\n    /**\n    * @dev Modifier that checks the insurance credit payout\n    */\n    modifier canPay()\n    {\n        require(passengers[tx.origin].flightInsuranceCredit > 0, \"Passenger should not get credit payout.\");\n        require(address(this).balance >= passengers[tx.origin].flightInsuranceCredit, \"Contract address has insufficient balance.\");\n        _;\n    }\n\n    /********************************************************************************************/\n    /*                                       UTILITY FUNCTIONS                                  */\n    /********************************************************************************************/\n\n    function authorizeCaller(\n                                address dataContract\n                            )\n                            external\n                            requireContractOwner\n    {\n        authorizedCallers[dataContract] = 1;\n    }\n\n    function deauthorizeCaller(\n                                address dataContract\n                            )\n                            external\n                            requireContractOwner\n    {\n        authorizedCallers[dataContract] = 0;\n    }\n\n    /**\n    * @dev Get operating status of contract\n    *\n    * @return A bool that is the current operating status\n    */      \n    function isOperational() \n                            public \n                            view \n                            returns(bool) \n    {\n        return operational;\n    }\n\n    /**\n    * @dev Sets contract operations on/off\n    *\n    * When operational mode is disabled, all write transactions except for this one will fail\n    */    \n    function setOperatingStatus\n                            (\n                                bool mode\n                            )\n                            external\n                            requireContractOwner\n    {\n        operational = mode;\n    }\n\n    /********************************************************************************************/\n    /*                                     SMART CONTRACT FUNCTIONS                             */\n    /********************************************************************************************/\n\n   /**\n    * @dev Add an airline to the registration queue\n    *      Can only be called from FlightSuretyApp contract\n    *\n    */   \n    function registerAirline\n                            (\n                                address airline\n                            )\n                            external\n                            requireIsOperational\n                            isCallerAuthorized\n                            isAirlineNotRegisteredAndFunded(tx.origin, airline)\n                            canRegisterAirline(airline)\n                            returns(bool, uint256)\n    {\n        bool success;\n        uint256 votes;\n        if (airlines.count < 4) {\n            airlines.airlineStatus[airline].registered = true;\n            airlines.airlineVotes[airline].push(tx.origin);\n            success = true;\n            votes = airlines.airlineVotes[airline].length;\n        } else {\n            airlines.airlineVotes[airline].push(tx.origin);\n\n            if (airlines.airlineVotes[airline].length < airlines.count.div(2)) {\n                success = false;\n                votes = airlines.airlineVotes[airline].length;\n            } else {\n                airlines.airlineStatus[airline].registered = true;\n                success = true;\n                votes = airlines.airlineVotes[airline].length;\n            }\n        }\n\n        return (success, votes);\n    }\n\n    function isAirline\n                        (\n                            address airline\n                        )\n                        external \n                        view \n                        returns(bool) \n    {\n        return airlines.airlineStatus[airline].registered;\n    }\n\n   /**\n    * @dev Register a future flight for insuring.\n    *\n    */  \n    function registerFlight\n                                (\n                                    address airline,\n                                    string flight,\n                                    uint256 timestamp\n                                )\n                                external\n                                requireIsOperational\n                                isAirlineRegisteredAndFunded(airline, airline)\n                                canRegisterFlight(airline, flight, timestamp)\n    {\n        bytes32 flightKey = getFlightKey(airline, flight, timestamp);\n        flights[flightKey] = Flight(true, STATUS_CODE_UNKNOWN, timestamp, airline);\n    }\n\n    function getFlightKey\n                        (\n                            address airline,\n                            string flight,\n                            uint256 timestamp\n                        )\n                        pure\n                        internal\n                        returns(bytes32) \n    {\n        return keccak256(abi.encodePacked(airline, flight, timestamp));\n    }\n\n   /**\n    * @dev Buy insurance for a flight\n    *\n    */   \n    function buy\n                            (   \n                                address airline,\n                                string flight,\n                                uint256 timestamp                          \n                            )\n                            external\n                            requireIsOperational\n                            requireExternallyOwnedAccount\n                            isFlightRegistered(airline, flight, timestamp)\n                            canBuy(airline, flight, timestamp)\n                            payable\n    {\n        bytes32 flightKey = getFlightKey(airline, flight, timestamp);\n        passengers[tx.origin].boughtFlightInsurance[flightKey] += msg.value;\n        passengerAddresses.push(tx.origin);\n    }\n\n    /**\n     *  @dev Credits payouts to insurees\n    */\n    function creditInsurees\n                                (\n                                    address airline,\n                                    string flight,\n                                    uint256 timestamp\n                                )\n                                public\n                                requireIsOperational\n    {\n        bytes32 flightKey = getFlightKey(airline, flight, timestamp);\n        for(uint c=0; c<passengerAddresses.length; c++) {\n            Passenger storage passenger = passengers[passengerAddresses[c]];\n            if (passenger.boughtFlightInsurance[flightKey] > 0) {\n                // credit 1.5x insurance amount\n                passenger.flightInsuranceCredit += passenger.boughtFlightInsurance[flightKey].mul(3).div(2);\n                passenger.boughtFlightInsurance[flightKey] = 0;\n            }\n        }\n    }\n\n    /**\n    *  @dev Process flight status data changes\n    */\n    function processFlightStatus\n                                (\n                                    address airline,\n                                    string flight,\n                                    uint256 timestamp,\n                                    uint8 statusCode\n                                )\n                                external\n                                requireIsOperational\n                                isFlightRegistered(airline, flight, timestamp)\n    {\n        bytes32 flightKey = getFlightKey(airline, flight, timestamp);\n        flights[flightKey].updatedTimestamp = timestamp;\n        flights[flightKey].statusCode = statusCode;\n\n        if (statusCode == STATUS_CODE_LATE_AIRLINE) {\n            creditInsurees(airline, flight, timestamp);\n        }\n    }\n\n    /**\n    *  @dev Get insuree's credit\n    */\n    function getInsureeCredit\n                                (\n                                )\n                                external\n                                view\n                                returns (uint256)\n    {\n        return passengers[tx.origin].flightInsuranceCredit;\n    }\n\n    /**\n     *  @dev Transfers eligible payout funds to insuree\n     *\n    */\n    function pay\n                            (\n                            )\n                            external\n                            canPay\n                            requireIsOperational\n                            requireExternallyOwnedAccount\n    {\n        uint256 credit = passengers[tx.origin].flightInsuranceCredit;\n        passengers[tx.origin].flightInsuranceCredit = 0;\n        tx.origin.transfer(credit); \n    }\n\n   /**\n    * @dev Initial funding for the insurance. Unless there are too many delayed flights\n    *      resulting in insurance payouts, the contract should be self-sustaining\n    *\n    */   \n    function fund\n                            (   \n                            )\n                            public\n                            canFund\n                            requireIsOperational\n                            requireExternallyOwnedAccount\n                            payable\n    {\n        airlines.count = airlines.count.add(1);\n        airlines.airlineStatus[tx.origin].participated = true;\n    }\n\n    /**\n    * @dev Fallback function for funding smart contract.\n    *\n    */\n    function() \n                            external \n                            payable \n    {\n        fund();\n    }\n\n\n}\n\n",
  "sourcePath": "/Users/janet/Desktop/udacity/blockchain-engineer/FlightSurety/contracts/FlightSuretyData.sol",
  "compiler": {
    "name": "solc",
    "version": "0.4.26+commit.4563c3fc.Emscripten.clang"
  },
  "schemaVersion": "3.4.3",
  "updatedAt": "2022-04-09T05:15:20.413Z",
  "networkType": "ethereum",
  "devdoc": {
    "methods": {
      "buy(address,string,uint256)": {
        "details": "Buy insurance for a flight    "
      },
      "creditInsurees(address,string,uint256)": {
        "details": "Credits payouts to insurees"
      },
      "fund()": {
        "details": "Initial funding for the insurance. Unless there are too many delayed flights     resulting in insurance payouts, the contract should be self-sustaining    "
      },
      "getInsureeCredit()": {
        "details": "Get insuree's credit"
      },
      "isOperational()": {
        "details": "Get operating status of contract",
        "return": "A bool that is the current operating status"
      },
      "pay()": {
        "details": "Transfers eligible payout funds to insuree    "
      },
      "processFlightStatus(address,string,uint256,uint8)": {
        "details": "Process flight status data changes"
      },
      "registerAirline(address)": {
        "details": "Add an airline to the registration queue     Can only be called from FlightSuretyApp contract    "
      },
      "registerFlight(address,string,uint256)": {
        "details": "Register a future flight for insuring.    "
      },
      "setOperatingStatus(bool)": {
        "details": "Sets contract operations on/off    * When operational mode is disabled, all write transactions except for this one will fail"
      }
    }
  },
  "userdoc": {
    "methods": {
      "authorizeCaller(address)": {
        "notice": "*****************************************************************************************"
      }
    }
  }
}