{
  "contractName": "FlightSuretyData",
  "abi": [
    {
      "constant": true,
      "inputs": [],
      "name": "INSURANCE_PAY_LIMIT",
      "outputs": [
        {
          "name": "",
          "type": "uint256"
        }
      ],
      "payable": false,
      "stateMutability": "view",
      "type": "function"
    },
    {
      "constant": true,
      "inputs": [],
      "name": "PARTICIPATION_FUND",
      "outputs": [
        {
          "name": "",
          "type": "uint256"
        }
      ],
      "payable": false,
      "stateMutability": "view",
      "type": "function"
    },
    {
      "inputs": [
        {
          "name": "firstAirline",
          "type": "address"
        }
      ],
      "payable": false,
      "stateMutability": "nonpayable",
      "type": "constructor"
    },
    {
      "payable": true,
      "stateMutability": "payable",
      "type": "fallback"
    },
    {
      "constant": false,
      "inputs": [
        {
          "name": "dataContract",
          "type": "address"
        }
      ],
      "name": "authorizeCaller",
      "outputs": [],
      "payable": false,
      "stateMutability": "nonpayable",
      "type": "function"
    },
    {
      "constant": false,
      "inputs": [
        {
          "name": "dataContract",
          "type": "address"
        }
      ],
      "name": "deauthorizeCaller",
      "outputs": [],
      "payable": false,
      "stateMutability": "nonpayable",
      "type": "function"
    },
    {
      "constant": true,
      "inputs": [],
      "name": "isOperational",
      "outputs": [
        {
          "name": "",
          "type": "bool"
        }
      ],
      "payable": false,
      "stateMutability": "view",
      "type": "function"
    },
    {
      "constant": false,
      "inputs": [
        {
          "name": "mode",
          "type": "bool"
        }
      ],
      "name": "setOperatingStatus",
      "outputs": [],
      "payable": false,
      "stateMutability": "nonpayable",
      "type": "function"
    },
    {
      "constant": false,
      "inputs": [
        {
          "name": "airline",
          "type": "address"
        }
      ],
      "name": "registerAirline",
      "outputs": [
        {
          "name": "",
          "type": "bool"
        },
        {
          "name": "",
          "type": "uint256"
        }
      ],
      "payable": false,
      "stateMutability": "nonpayable",
      "type": "function"
    },
    {
      "constant": true,
      "inputs": [
        {
          "name": "airline",
          "type": "address"
        }
      ],
      "name": "isAirline",
      "outputs": [
        {
          "name": "",
          "type": "bool"
        }
      ],
      "payable": false,
      "stateMutability": "view",
      "type": "function"
    },
    {
      "constant": false,
      "inputs": [
        {
          "name": "airline",
          "type": "address"
        },
        {
          "name": "flight",
          "type": "string"
        },
        {
          "name": "timestamp",
          "type": "uint256"
        }
      ],
      "name": "registerFlight",
      "outputs": [],
      "payable": false,
      "stateMutability": "nonpayable",
      "type": "function"
    },
    {
      "constant": true,
      "inputs": [
        {
          "name": "airline",
          "type": "address"
        },
        {
          "name": "flight",
          "type": "string"
        },
        {
          "name": "timestamp",
          "type": "uint256"
        }
      ],
      "name": "viewFlightStatus",
      "outputs": [
        {
          "name": "",
          "type": "uint8"
        }
      ],
      "payable": false,
      "stateMutability": "view",
      "type": "function"
    },
    {
      "constant": false,
      "inputs": [
        {
          "name": "airline",
          "type": "address"
        },
        {
          "name": "flight",
          "type": "string"
        },
        {
          "name": "timestamp",
          "type": "uint256"
        }
      ],
      "name": "buy",
      "outputs": [],
      "payable": true,
      "stateMutability": "payable",
      "type": "function"
    },
    {
      "constant": false,
      "inputs": [
        {
          "name": "airline",
          "type": "address"
        },
        {
          "name": "flight",
          "type": "string"
        },
        {
          "name": "timestamp",
          "type": "uint256"
        }
      ],
      "name": "creditInsurees",
      "outputs": [],
      "payable": false,
      "stateMutability": "nonpayable",
      "type": "function"
    },
    {
      "constant": false,
      "inputs": [
        {
          "name": "airline",
          "type": "address"
        },
        {
          "name": "flight",
          "type": "string"
        },
        {
          "name": "timestamp",
          "type": "uint256"
        },
        {
          "name": "statusCode",
          "type": "uint8"
        }
      ],
      "name": "processFlightStatus",
      "outputs": [],
      "payable": false,
      "stateMutability": "nonpayable",
      "type": "function"
    },
    {
      "constant": true,
      "inputs": [],
      "name": "getInsureeCredit",
      "outputs": [
        {
          "name": "",
          "type": "uint256"
        }
      ],
      "payable": false,
      "stateMutability": "view",
      "type": "function"
    },
    {
      "constant": false,
      "inputs": [],
      "name": "pay",
      "outputs": [],
      "payable": false,
      "stateMutability": "nonpayable",
      "type": "function"
    },
    {
      "constant": false,
      "inputs": [],
      "name": "fund",
      "outputs": [],
      "payable": true,
      "stateMutability": "payable",
      "type": "function"
    }
  ],
  "bytecode": "0x60806040526001600260006101000a81548160ff02191690831515021790555034801561002b57600080fd5b50604051602080612d5383398101806040528101908080519060200190929190505050336000806101000a81548173ffffffffffffffffffffffffffffffffffffffff021916908373ffffffffffffffffffffffffffffffffffffffff16021790555060006003600201819055506001600360010160008373ffffffffffffffffffffffffffffffffffffffff1673ffffffffffffffffffffffffffffffffffffffff16815260200190815260200160002060000160006101000a81548160ff0219169083151502179055506000600360010160008373ffffffffffffffffffffffffffffffffffffffff1673ffffffffffffffffffffffffffffffffffffffff16815260200190815260200160002060000160016101000a81548160ff02191690831515021790555050612bee806101656000396000f3006080604052600436106100e6576000357c0100000000000000000000000000000000000000000000000000000000900463ffffffff1680630e248a11146100f0578063110466ed1461014b5780631ab5adcb1461017a5780631b9265b8146101a55780632c388d5d146101bc5780633cc0be9c146101ff5780636873c21d146102645780638d2c39a8146102a7578063a4bf718d146102d2578063b1c46d22146102fd578063b60d428814610355578063bdfd98771461035f578063c8820a70146103c1578063cd905dff14610454578063e7bdde3b14610483578063ebbd2272146104f5575b6100ee610574565b005b3480156100fc57600080fd5b50610131600480360381019080803573ffffffffffffffffffffffffffffffffffffffff1690602001909291905050506109e8565b604051808215151515815260200191505060405180910390f35b34801561015757600080fd5b50610178600480360381019080803515159060200190929190505050610a44565b005b34801561018657600080fd5b5061018f610b25565b6040518082815260200191505060405180910390f35b3480156101b157600080fd5b506101ba610b31565b005b3480156101c857600080fd5b506101fd600480360381019080803573ffffffffffffffffffffffffffffffffffffffff169060200190929190505050610f2d565b005b34801561020b57600080fd5b50610262600480360381019080803573ffffffffffffffffffffffffffffffffffffffff16906020019092919080359060200190820180359060200191909192939192939080359060200190929190505050611038565b005b34801561027057600080fd5b506102a5600480360381019080803573ffffffffffffffffffffffffffffffffffffffff16906020019092919050505061152b565b005b3480156102b357600080fd5b506102bc611637565b6040518082815260200191505060405180910390f35b3480156102de57600080fd5b506102e7611643565b6040518082815260200191505060405180910390f35b610353600480360381019080803573ffffffffffffffffffffffffffffffffffffffff1690602001909291908035906020019082018035906020019190919293919293908035906020019092919050505061168d565b005b61035d610574565b005b34801561036b57600080fd5b506103a0600480360381019080803573ffffffffffffffffffffffffffffffffffffffff169060200190929190505050611bda565b60405180831515151581526020018281526020019250505060405180910390f35b3480156103cd57600080fd5b50610452600480360381019080803573ffffffffffffffffffffffffffffffffffffffff169060200190929190803590602001908201803590602001908080601f01602080910402602001604051908101604052809392919081815260200183838082843782019150505050505091929192908035906020019092919050505061243d565b005b34801561046057600080fd5b50610469612639565b604051808215151515815260200191505060405180910390f35b34801561048f57600080fd5b506104f3600480360381019080803573ffffffffffffffffffffffffffffffffffffffff16906020019092919080359060200190820180359060200191909192939192939080359060200190929190803560ff169060200190929190505050612650565b005b34801561050157600080fd5b50610558600480360381019080803573ffffffffffffffffffffffffffffffffffffffff169060200190929190803590602001908201803590602001919091929391929390803590602001909291905050506128d2565b604051808260ff1660ff16815260200191505060405180910390f35b600360010160003273ffffffffffffffffffffffffffffffffffffffff1673ffffffffffffffffffffffffffffffffffffffff16815260200190815260200160002060000160009054906101000a900460ff16151561063b576040517f08c379a00000000000000000000000000000000000000000000000000000000081526004018080602001828103825260198152602001807f6169726c696e65206973206e6f7420726567697374657265640000000000000081525060200191505060405180910390fd5b600360010160003273ffffffffffffffffffffffffffffffffffffffff1673ffffffffffffffffffffffffffffffffffffffff16815260200190815260200160002060000160019054906101000a900460ff16151515610703576040517f08c379a00000000000000000000000000000000000000000000000000000000081526004018080602001828103825260208152602001807f6169726c696e652068617320616c72656164792070617274696369706174656481525060200191505060405180910390fd5b678ac7230489e800003273ffffffffffffffffffffffffffffffffffffffff16311015151561079a576040517f08c379a00000000000000000000000000000000000000000000000000000000081526004018080602001828103825260208152602001807f6169726c696e65206d757374206861766520656e6f7567682062616c616e636581525060200191505060405180910390fd5b678ac7230489e8000034141515610819576040517f08c379a000000000000000000000000000000000000000000000000000000000815260040180806020018281038252601a8152602001807f6169726c696e65206d7573742066756e6420313020657468657200000000000081525060200191505060405180910390fd5b600260009054906101000a900460ff1615156108c3576040517f08c379a00000000000000000000000000000000000000000000000000000000081526004018080602001828103825260258152602001807f436f6e74726163742069732063757272656e746c79206e6f74206f706572617481526020017f696f6e616c00000000000000000000000000000000000000000000000000000081525060400191505060405180910390fd5b3273ffffffffffffffffffffffffffffffffffffffff163373ffffffffffffffffffffffffffffffffffffffff16141515610966576040517f08c379a00000000000000000000000000000000000000000000000000000000081526004018080602001828103825260158152602001807f436f6e747261637473206e6f7420616c6c6f776564000000000000000000000081525060200191505060405180910390fd5b61097f6001600360020154612a3390919063ffffffff16565b6003600201819055506001600360010160003273ffffffffffffffffffffffffffffffffffffffff1673ffffffffffffffffffffffffffffffffffffffff16815260200190815260200160002060000160016101000a81548160ff021916908315150217905550565b6000600360010160008373ffffffffffffffffffffffffffffffffffffffff1673ffffffffffffffffffffffffffffffffffffffff16815260200190815260200160002060000160009054906101000a900460ff169050919050565b6000809054906101000a900473ffffffffffffffffffffffffffffffffffffffff1673ffffffffffffffffffffffffffffffffffffffff163373ffffffffffffffffffffffffffffffffffffffff16141515610b08576040517f08c379a000000000000000000000000000000000000000000000000000000000815260040180806020018281038252601c8152602001807f43616c6c6572206973206e6f7420636f6e7472616374206f776e65720000000081525060200191505060405180910390fd5b80600260006101000a81548160ff02191690831515021790555050565b670de0b6b3a764000081565b600080600760003273ffffffffffffffffffffffffffffffffffffffff1673ffffffffffffffffffffffffffffffffffffffff16815260200190815260200160002060010154111515610c12576040517f08c379a00000000000000000000000000000000000000000000000000000000081526004018080602001828103825260278152602001807f50617373656e6765722073686f756c64206e6f7420676574206372656469742081526020017f7061796f75742e0000000000000000000000000000000000000000000000000081525060400191505060405180910390fd5b600760003273ffffffffffffffffffffffffffffffffffffffff1673ffffffffffffffffffffffffffffffffffffffff168152602001908152602001600020600101543073ffffffffffffffffffffffffffffffffffffffff163110151515610d09576040517f08c379a000000000000000000000000000000000000000000000000000000000815260040180806020018281038252602a8152602001807f436f6e747261637420616464726573732068617320696e73756666696369656e81526020017f742062616c616e63652e0000000000000000000000000000000000000000000081525060400191505060405180910390fd5b600260009054906101000a900460ff161515610db3576040517f08c379a00000000000000000000000000000000000000000000000000000000081526004018080602001828103825260258152602001807f436f6e74726163742069732063757272656e746c79206e6f74206f706572617481526020017f696f6e616c00000000000000000000000000000000000000000000000000000081525060400191505060405180910390fd5b3273ffffffffffffffffffffffffffffffffffffffff163373ffffffffffffffffffffffffffffffffffffffff16141515610e56576040517f08c379a00000000000000000000000000000000000000000000000000000000081526004018080602001828103825260158152602001807f436f6e747261637473206e6f7420616c6c6f776564000000000000000000000081525060200191505060405180910390fd5b600760003273ffffffffffffffffffffffffffffffffffffffff1673ffffffffffffffffffffffffffffffffffffffff1681526020019081526020016000206001015490506000600760003273ffffffffffffffffffffffffffffffffffffffff1673ffffffffffffffffffffffffffffffffffffffff168152602001908152602001600020600101819055503273ffffffffffffffffffffffffffffffffffffffff166108fc829081150290604051600060405180830381858888f19350505050158015610f29573d6000803e3d6000fd5b5050565b6000809054906101000a900473ffffffffffffffffffffffffffffffffffffffff1673ffffffffffffffffffffffffffffffffffffffff163373ffffffffffffffffffffffffffffffffffffffff16141515610ff1576040517f08c379a000000000000000000000000000000000000000000000000000000000815260040180806020018281038252601c8152602001807f43616c6c6572206973206e6f7420636f6e7472616374206f776e65720000000081525060200191505060405180910390fd5b60018060008373ffffffffffffffffffffffffffffffffffffffff1673ffffffffffffffffffffffffffffffffffffffff1681526020019081526020016000208190555050565b6000600260009054906101000a900460ff1615156110e4576040517f08c379a00000000000000000000000000000000000000000000000000000000081526004018080602001828103825260258152602001807f436f6e74726163742069732063757272656e746c79206e6f74206f706572617481526020017f696f6e616c00000000000000000000000000000000000000000000000000000081525060400191505060405180910390fd5b8485600360010160008273ffffffffffffffffffffffffffffffffffffffff1673ffffffffffffffffffffffffffffffffffffffff16815260200190815260200160002060000160009054906101000a900460ff1615156111ad576040517f08c379a000000000000000000000000000000000000000000000000000000000815260040180806020018281038252601e8152602001807f6169726c696e65206973206e6f742072656769737465726564207965742e000081525060200191505060405180910390fd5b600360010160008373ffffffffffffffffffffffffffffffffffffffff1673ffffffffffffffffffffffffffffffffffffffff16815260200190815260200160002060000160019054906101000a900460ff16151561129a576040517f08c379a00000000000000000000000000000000000000000000000000000000081526004018080602001828103825260328152602001807f7468652063616c6c6572206169726c696e6520686173206e6f7420706169642081526020017f70617274696369706174696f6e206665652e000000000000000000000000000081525060400191505060405180910390fd5b8686868080601f01602080910402602001604051908101604052809392919081815260200183838082843782019150505050505085600660006112de858585612a4f565b6000191660001916815260200190815260200160002060000160009054906101000a900460ff1615151561137a576040517f08c379a000000000000000000000000000000000000000000000000000000000815260040180806020018281038252601c8152602001807f666c6967687420697320616c726561647920726567697374657265640000000081525060200191505060405180910390fd5b42811115156113f1576040517f08c379a00000000000000000000000000000000000000000000000000000000081526004018080602001828103825260188152602001807f666c69676874206d75737420626520696e20667574757265000000000000000081525060200191505060405180910390fd5b61142e8a8a8a8080601f01602080910402602001604051908101604052809392919081815260200183838082843782019150505050505089612a4f565b9550608060405190810160405280600115158152602001600060ff1681526020018881526020018b73ffffffffffffffffffffffffffffffffffffffff1681525060066000886000191660001916815260200190815260200160002060008201518160000160006101000a81548160ff02191690831515021790555060208201518160000160016101000a81548160ff021916908360ff1602179055506040820151816001015560608201518160020160006101000a81548173ffffffffffffffffffffffffffffffffffffffff021916908373ffffffffffffffffffffffffffffffffffffffff16021790555090505050505050505050505050565b6000809054906101000a900473ffffffffffffffffffffffffffffffffffffffff1673ffffffffffffffffffffffffffffffffffffffff163373ffffffffffffffffffffffffffffffffffffffff161415156115ef576040517f08c379a000000000000000000000000000000000000000000000000000000000815260040180806020018281038252601c8152602001807f43616c6c6572206973206e6f7420636f6e7472616374206f776e65720000000081525060200191505060405180910390fd5b6000600160008373ffffffffffffffffffffffffffffffffffffffff1673ffffffffffffffffffffffffffffffffffffffff1681526020019081526020016000208190555050565b678ac7230489e8000081565b6000600760003273ffffffffffffffffffffffffffffffffffffffff1673ffffffffffffffffffffffffffffffffffffffff16815260200190815260200160002060010154905090565b6000600260009054906101000a900460ff161515611739576040517f08c379a00000000000000000000000000000000000000000000000000000000081526004018080602001828103825260258152602001807f436f6e74726163742069732063757272656e746c79206e6f74206f706572617481526020017f696f6e616c00000000000000000000000000000000000000000000000000000081525060400191505060405180910390fd5b3273ffffffffffffffffffffffffffffffffffffffff163373ffffffffffffffffffffffffffffffffffffffff161415156117dc576040517f08c379a00000000000000000000000000000000000000000000000000000000081526004018080602001828103825260158152602001807f436f6e747261637473206e6f7420616c6c6f776564000000000000000000000081525060200191505060405180910390fd5b8484848080601f01602080910402602001604051908101604052809392919081815260200183838082843782019150505050505083600061181e848484612a4f565b905060066000826000191660001916815260200190815260200160002060000160009054906101000a900460ff1615156118c0576040517f08c379a000000000000000000000000000000000000000000000000000000000815260040180806020018281038252601d8152602001807f466c69676874206973206e6f742072656769737465726564207965742e00000081525060200191505060405180910390fd5b8888888080601f016020809104026020016040519081016040528093929190818152602001838380828437820191505050505050876000611902848484612a4f565b9050670de0b6b3a764000034600760003273ffffffffffffffffffffffffffffffffffffffff1673ffffffffffffffffffffffffffffffffffffffff16815260200190815260200160002060000160008460001916600019168152602001908152602001600020540111151515611a07576040517f08c379a00000000000000000000000000000000000000000000000000000000081526004018080602001828103825260238152602001807f50617373656e676572206f766572626f756768742074686520696e737572616e81526020017f63652e000000000000000000000000000000000000000000000000000000000081525060400191505060405180910390fd5b60003273ffffffffffffffffffffffffffffffffffffffff163110151515611abd576040517f08c379a00000000000000000000000000000000000000000000000000000000081526004018080602001828103825260288152602001807f50617373656e676572206d757374206861766520736f6d652062616c616e636581526020017f20746f206275792e00000000000000000000000000000000000000000000000081525060400191505060405180910390fd5b611afa8d8d8d8080601f0160208091040260200160405190810160405280939291908181526020018383808284378201915050505050508c612a4f565b985034600760003273ffffffffffffffffffffffffffffffffffffffff1673ffffffffffffffffffffffffffffffffffffffff16815260200190815260200160002060000160008b600019166000191681526020019081526020016000206000828254019250508190555060083290806001815401808255809150509060018203906000526020600020016000909192909190916101000a81548173ffffffffffffffffffffffffffffffffffffffff021916908373ffffffffffffffffffffffffffffffffffffffff1602179055505050505050505050505050505050565b600080600080600260009054906101000a900460ff161515611c8a576040517f08c379a00000000000000000000000000000000000000000000000000000000081526004018080602001828103825260258152602001807f436f6e74726163742069732063757272656e746c79206e6f74206f706572617481526020017f696f6e616c00000000000000000000000000000000000000000000000000000081525060400191505060405180910390fd5b60018060003373ffffffffffffffffffffffffffffffffffffffff1673ffffffffffffffffffffffffffffffffffffffff16815260200190815260200160002054141515611d40576040517f08c379a00000000000000000000000000000000000000000000000000000000081526004018080602001828103825260188152602001807f43616c6c6572206973206e6f7420617574686f72697a6564000000000000000081525060200191505060405180910390fd5b3285600360010160008273ffffffffffffffffffffffffffffffffffffffff1673ffffffffffffffffffffffffffffffffffffffff16815260200190815260200160002060000160009054906101000a900460ff16151515611e0a576040517f08c379a000000000000000000000000000000000000000000000000000000000815260040180806020018281038252601d8152602001807f6169726c696e6520697320616c7265616479207265676973746572656400000081525060200191505060405180910390fd5b600360010160008373ffffffffffffffffffffffffffffffffffffffff1673ffffffffffffffffffffffffffffffffffffffff16815260200190815260200160002060000160019054906101000a900460ff161515611ef7576040517f08c379a00000000000000000000000000000000000000000000000000000000081526004018080602001828103825260328152602001807f7468652063616c6c6572206169726c696e6520686173206e6f7420706169642081526020017f70617274696369706174696f6e206665652e000000000000000000000000000081525060400191505060405180910390fd5b8660008060046003600201541015156120c05760009150600090505b600360000160008473ffffffffffffffffffffffffffffffffffffffff1673ffffffffffffffffffffffffffffffffffffffff16815260200190815260200160002080549050811015612023573273ffffffffffffffffffffffffffffffffffffffff16600360000160008573ffffffffffffffffffffffffffffffffffffffff1673ffffffffffffffffffffffffffffffffffffffff16815260200190815260200160002082815481101515611fc657fe5b9060005260206000200160009054906101000a900473ffffffffffffffffffffffffffffffffffffffff1673ffffffffffffffffffffffffffffffffffffffff1614156120165760019150612023565b8080600101915050611f13565b811515156120bf576040517f08c379a000000000000000000000000000000000000000000000000000000000815260040180806020018281038252603b8152602001807f7468652063616c6c6572206169726c696e652068617320616c7265616479207681526020017f6f74656420666f722070617373656420696e206169726c696e652e000000000081525060400191505060405180910390fd5b5b60046003600201541015612223576001600360010160008c73ffffffffffffffffffffffffffffffffffffffff1673ffffffffffffffffffffffffffffffffffffffff16815260200190815260200160002060000160006101000a81548160ff021916908315150217905550600360000160008b73ffffffffffffffffffffffffffffffffffffffff1673ffffffffffffffffffffffffffffffffffffffff1681526020019081526020016000203290806001815401808255809150509060018203906000526020600020016000909192909190916101000a81548173ffffffffffffffffffffffffffffffffffffffff021916908373ffffffffffffffffffffffffffffffffffffffff1602179055505060019650600360000160008b73ffffffffffffffffffffffffffffffffffffffff1673ffffffffffffffffffffffffffffffffffffffff16815260200190815260200160002080549050955061242b565b600360000160008b73ffffffffffffffffffffffffffffffffffffffff1673ffffffffffffffffffffffffffffffffffffffff1681526020019081526020016000203290806001815401808255809150509060018203906000526020600020016000909192909190916101000a81548173ffffffffffffffffffffffffffffffffffffffff021916908373ffffffffffffffffffffffffffffffffffffffff160217905550506122e26002600360020154612b7490919063ffffffff16565b600360000160008c73ffffffffffffffffffffffffffffffffffffffff1673ffffffffffffffffffffffffffffffffffffffff16815260200190815260200160002080549050101561237f5760009650600360000160008b73ffffffffffffffffffffffffffffffffffffffff1673ffffffffffffffffffffffffffffffffffffffff16815260200190815260200160002080549050955061242a565b6001600360010160008c73ffffffffffffffffffffffffffffffffffffffff1673ffffffffffffffffffffffffffffffffffffffff16815260200190815260200160002060000160006101000a81548160ff02191690831515021790555060019650600360000160008b73ffffffffffffffffffffffffffffffffffffffff1673ffffffffffffffffffffffffffffffffffffffff1681526020019081526020016000208054905095505b5b86869850985050505050505050915091565b6000806000600260009054906101000a900460ff1615156124ec576040517f08c379a00000000000000000000000000000000000000000000000000000000081526004018080602001828103825260258152602001807f436f6e74726163742069732063757272656e746c79206e6f74206f706572617481526020017f696f6e616c00000000000000000000000000000000000000000000000000000081525060400191505060405180910390fd5b6124f7868686612a4f565b9250600091505b600880549050821015612631576007600060088481548110151561251e57fe5b9060005260206000200160009054906101000a900473ffffffffffffffffffffffffffffffffffffffff1673ffffffffffffffffffffffffffffffffffffffff1673ffffffffffffffffffffffffffffffffffffffff168152602001908152602001600020905060008160000160008560001916600019168152602001908152602001600020541115612624576125ef60026125e16003846000016000886000191660001916815260200190815260200160002054612b8a90919063ffffffff16565b612b7490919063ffffffff16565b816001016000828254019250508190555060008160000160008560001916600019168152602001908152602001600020819055505b81806001019250506124fe565b505050505050565b6000600260009054906101000a900460ff16905090565b6000600260009054906101000a900460ff1615156126fc576040517f08c379a00000000000000000000000000000000000000000000000000000000081526004018080602001828103825260258152602001807f436f6e74726163742069732063757272656e746c79206e6f74206f706572617481526020017f696f6e616c00000000000000000000000000000000000000000000000000000081525060400191505060405180910390fd5b8585858080601f01602080910402602001604051908101604052809392919081815260200183838082843782019150505050505084600061273e848484612a4f565b905060066000826000191660001916815260200190815260200160002060000160009054906101000a900460ff1615156127e0576040517f08c379a000000000000000000000000000000000000000000000000000000000815260040180806020018281038252601d8152602001807f466c69676874206973206e6f742072656769737465726564207965742e00000081525060200191505060405180910390fd5b61281d8a8a8a8080601f01602080910402602001604051908101604052809392919081815260200183838082843782019150505050505089612a4f565b945086600660008760001916600019168152602001908152602001600020600101819055508560066000876000191660001916815260200190815260200160002060000160016101000a81548160ff021916908360ff160217905550601460ff168660ff1614156128c6576128c58a8a8a8080601f0160208091040260200160405190810160405280939291908181526020018383808284378201915050505050508961243d565b5b50505050505050505050565b6000808585858080601f016020809104026020016040519081016040528093929190818152602001838380828437820191505050505050846000612917848484612a4f565b905060066000826000191660001916815260200190815260200160002060000160009054906101000a900460ff1615156129b9576040517f08c379a000000000000000000000000000000000000000000000000000000000815260040180806020018281038252601d8152602001807f466c69676874206973206e6f742072656769737465726564207965742e00000081525060200191505060405180910390fd5b6129f68a8a8a8080601f01602080910402602001604051908101604052809392919081815260200183838082843782019150505050505089612a4f565b945060066000866000191660001916815260200190815260200160002060000160019054906101000a900460ff1695505050505050949350505050565b60008183019050828110151515612a4657fe5b80905092915050565b6000838383604051602001808473ffffffffffffffffffffffffffffffffffffffff1673ffffffffffffffffffffffffffffffffffffffff166c0100000000000000000000000002815260140183805190602001908083835b602083101515612acd5780518252602082019150602081019050602083039250612aa8565b6001836020036101000a03801982511681845116808217855250505050505090500182815260200193505050506040516020818303038152906040526040518082805190602001908083835b602083101515612b3e5780518252602082019150602081019050602083039250612b19565b6001836020036101000a038019825116818451168082178552505050505050905001915050604051809103902090509392505050565b60008183811515612b8157fe5b04905092915050565b600080831415612b9d5760009050612bbc565b8183029050818382811515612bae57fe5b04141515612bb857fe5b8090505b929150505600a165627a7a723058206fbbe26bcb8ed1a8d93a722fa748baad73616b893ef93d42ddd9893a2e0f31a80029",
  "source": "pragma solidity ^0.4.25;\n\nimport \"../node_modules/openzeppelin-solidity/contracts/math/SafeMath.sol\";\n\ncontract FlightSuretyData {\n    using SafeMath for uint256;\n\n    /********************************************************************************************/\n    /*                                       DATA VARIABLES                                     */\n    /********************************************************************************************/\n\n    address private contractOwner;                                      // Account used to deploy contract\n    mapping(address => uint256) private authorizedCallers;              // Addresses that can access this contract\n    bool private operational = true;                                    // Blocks all state changes throughout the contract if false\n    uint256 public constant PARTICIPATION_FUND = 10 ether;\n    uint256 public constant INSURANCE_PAY_LIMIT = 1 ether;\n\n\n    struct AirlineStatus {\n        bool registered;\n        bool participated;\n    }\n\n    struct Airlines {\n        mapping (address => address[]) airlineVotes;\n        mapping (address => AirlineStatus) airlineStatus;\n        uint256 count;\n    }\n    Airlines private airlines;\n\n    // Flight status codees\n    uint8 private constant STATUS_CODE_UNKNOWN = 0;\n    uint8 private constant STATUS_CODE_ON_TIME = 10;\n    uint8 private constant STATUS_CODE_LATE_AIRLINE = 20;\n    uint8 private constant STATUS_CODE_LATE_WEATHER = 30;\n    uint8 private constant STATUS_CODE_LATE_TECHNICAL = 40;\n    uint8 private constant STATUS_CODE_LATE_OTHER = 50;\n\n    struct Flight {\n        bool isRegistered;\n        uint8 statusCode;\n        uint256 updatedTimestamp;        \n        address airline;\n    }\n    mapping(bytes32 => Flight) private flights;\n\n    struct Passenger {\n        mapping(bytes32 => uint256) boughtFlightInsurance;\n        uint256 flightInsuranceCredit;\n    }\n    mapping(address => Passenger) private passengers;\n    address[] private passengerAddresses;\n\n    /********************************************************************************************/\n    /*                                       EVENT DEFINITIONS                                  */\n    /********************************************************************************************/\n\n\n    /**\n    * @dev Constructor\n    *      The deploying account becomes contractOwner\n    */\n    constructor\n                                (\n                                    address firstAirline\n                                ) \n                                public \n    {\n        contractOwner = msg.sender;\n        airlines.count = 0;\n        airlines.airlineStatus[firstAirline].registered = true;\n        airlines.airlineStatus[firstAirline].participated = false;\n    }\n\n    /********************************************************************************************/\n    /*                                       FUNCTION MODIFIERS                                 */\n    /********************************************************************************************/\n\n    // Modifiers help avoid duplication of code. They are typically used to validate something\n    // before a function is allowed to be executed.\n\n    /**\n    * @dev Modifier that requires the \"operational\" boolean variable to be \"true\"\n    *      This is used on all state changing functions to pause the contract in \n    *      the event there is an issue that needs to be fixed\n    */\n    modifier requireIsOperational() \n    {\n        require(operational, \"Contract is currently not operational\");\n        _;  // All modifiers require an \"_\" which indicates where the function body will be added\n    }\n\n    /**\n    * @dev Modifier that requires the \"ContractOwner\" account to be the function caller\n    */\n    modifier requireContractOwner()\n    {\n        require(msg.sender == contractOwner, \"Caller is not contract owner\");\n        _;\n    }\n\n    /**\n    * @dev Modifier that requires the \"ExternallyOwnedAccount\" account to be the function caller\n    */\n    modifier requireExternallyOwnedAccount()\n    {\n        require(msg.sender == tx.origin, \"Contracts not allowed\");\n        _;\n    }\n\n    /**\n    * @dev Modifier that requires the \"authorized\" account to be the function caller\n    */\n    modifier isCallerAuthorized()\n    {\n        require(authorizedCallers[msg.sender] == 1, \"Caller is not authorized\");\n        _;\n    }\n\n    /**\n    * @dev Modifier that checks the airline registration prerequisites\n    */\n    modifier isAirlineNotRegisteredAndFunded(address fundAirline, address registerAirline)\n    {\n        require(!airlines.airlineStatus[registerAirline].registered, \"airline is already registered\");\n        require(airlines.airlineStatus[fundAirline].participated, \"the caller airline has not paid participation fee.\");\n        _;\n    }\n\n    /**\n    * @dev Modifier that checks the flight registration prerequisites\n    */\n    modifier isAirlineRegisteredAndFunded(address fundAirline, address registerAirline)\n    {\n        require(airlines.airlineStatus[registerAirline].registered, \"airline is not registered yet.\");\n        require(airlines.airlineStatus[fundAirline].participated, \"the caller airline has not paid participation fee.\");\n        _;\n    }\n\n    /**\n    * @dev Modifier that checks the airline registration requirements\n    */\n    modifier canRegisterAirline(address airline)\n    {\n        if (airlines.count >= 4) {\n            bool isDuplicate = false;\n            for(uint c=0; c<airlines.airlineVotes[airline].length; c++) {\n                if (airlines.airlineVotes[airline][c] == tx.origin) {\n                    isDuplicate = true;\n                    break;\n                }\n            }\n            require(!isDuplicate, \"the caller airline has already voted for passed in airline.\");\n        }\n\n        _;\n    }\n\n    /**\n    * @dev Modifier that checks the passenger buy insurance requirements\n    */\n    modifier isFlightRegistered(\n                                    address airline,\n                                    string flight,\n                                    uint256 timestamp\n                                )\n    {\n        bytes32 flightKey = getFlightKey(airline, flight, timestamp);\n        require(flights[flightKey].isRegistered, \"Flight is not registered yet.\");\n        _;\n    }\n\n    /**\n    * @dev Modifier that checks the flight registration requirements\n    */\n    modifier canRegisterFlight(\n                                    address airline,\n                                    string flight,\n                                    uint256 timestamp\n                              )\n    {\n        require(!flights[getFlightKey(airline, flight, timestamp)].isRegistered, \"flight is already registered\");\n        require(timestamp > block.timestamp, \"flight must be in future\");\n        _;\n    }\n\n    /**\n    * @dev Modifier that checks the airline funding\n    */\n    modifier canFund()\n    {\n        require(airlines.airlineStatus[tx.origin].registered, \"airline is not registered\");\n        require(!airlines.airlineStatus[tx.origin].participated, \"airline has already participated\");\n        require(tx.origin.balance >= PARTICIPATION_FUND, \"airline must have enough balance\");\n        require(msg.value == PARTICIPATION_FUND, \"airline must fund 10 ether\");\n        _;\n    }\n\n    /**\n    * @dev Modifier that checks the flight insurance buy\n    */\n    modifier canBuy(\n                        address airline,\n                        string flight,\n                        uint256 timestamp\n                   )\n    {\n        bytes32 flightKey = getFlightKey(airline, flight, timestamp);\n        require(passengers[tx.origin].boughtFlightInsurance[flightKey] + msg.value <= INSURANCE_PAY_LIMIT, \"Passenger overbought the insurance.\");\n        require(tx.origin.balance >= 0 ether, \"Passenger must have some balance to buy.\");\n        _;\n    }\n\n    /**\n    * @dev Modifier that checks the insurance credit payout\n    */\n    modifier canPay()\n    {\n        require(passengers[tx.origin].flightInsuranceCredit > 0, \"Passenger should not get credit payout.\");\n        require(address(this).balance >= passengers[tx.origin].flightInsuranceCredit, \"Contract address has insufficient balance.\");\n        _;\n    }\n\n    /********************************************************************************************/\n    /*                                       UTILITY FUNCTIONS                                  */\n    /********************************************************************************************/\n\n    function authorizeCaller(\n                                address dataContract\n                            )\n                            external\n                            requireContractOwner\n    {\n        authorizedCallers[dataContract] = 1;\n    }\n\n    function deauthorizeCaller(\n                                address dataContract\n                            )\n                            external\n                            requireContractOwner\n    {\n        authorizedCallers[dataContract] = 0;\n    }\n\n    /**\n    * @dev Get operating status of contract\n    *\n    * @return A bool that is the current operating status\n    */      \n    function isOperational() \n                            public \n                            view \n                            returns(bool) \n    {\n        return operational;\n    }\n\n    /**\n    * @dev Sets contract operations on/off\n    *\n    * When operational mode is disabled, all write transactions except for this one will fail\n    */    \n    function setOperatingStatus\n                            (\n                                bool mode\n                            )\n                            external\n                            requireContractOwner\n    {\n        operational = mode;\n    }\n\n    /********************************************************************************************/\n    /*                                     SMART CONTRACT FUNCTIONS                             */\n    /********************************************************************************************/\n\n   /**\n    * @dev Add an airline to the registration queue\n    *      Can only be called from FlightSuretyApp contract\n    *\n    */   \n    function registerAirline\n                            (\n                                address airline\n                            )\n                            external\n                            requireIsOperational\n                            isCallerAuthorized\n                            isAirlineNotRegisteredAndFunded(tx.origin, airline)\n                            canRegisterAirline(airline)\n                            returns(bool, uint256)\n    {\n        bool success;\n        uint256 votes;\n        if (airlines.count < 4) {\n            airlines.airlineStatus[airline].registered = true;\n            airlines.airlineVotes[airline].push(tx.origin);\n            success = true;\n            votes = airlines.airlineVotes[airline].length;\n        } else {\n            airlines.airlineVotes[airline].push(tx.origin);\n\n            if (airlines.airlineVotes[airline].length < airlines.count.div(2)) {\n                success = false;\n                votes = airlines.airlineVotes[airline].length;\n            } else {\n                airlines.airlineStatus[airline].registered = true;\n                success = true;\n                votes = airlines.airlineVotes[airline].length;\n            }\n        }\n\n        return (success, votes);\n    }\n\n    function isAirline\n                        (\n                            address airline\n                        )\n                        external \n                        view \n                        returns(bool) \n    {\n        return airlines.airlineStatus[airline].registered;\n    }\n\n   /**\n    * @dev Register a future flight for insuring.\n    *\n    */  \n    function registerFlight\n                                (\n                                    address airline,\n                                    string flight,\n                                    uint256 timestamp\n                                )\n                                external\n                                requireIsOperational\n                                isAirlineRegisteredAndFunded(airline, airline)\n                                canRegisterFlight(airline, flight, timestamp)\n    {\n        bytes32 flightKey = getFlightKey(airline, flight, timestamp);\n        flights[flightKey] = Flight(true, STATUS_CODE_UNKNOWN, timestamp, airline);\n    }\n\n    function getFlightKey\n                        (\n                            address airline,\n                            string flight,\n                            uint256 timestamp\n                        )\n                        pure\n                        internal\n                        returns(bytes32) \n    {\n        return keccak256(abi.encodePacked(airline, flight, timestamp));\n    }\n\n   /**\n    * @dev View flight status for DApps\n    *\n    */ \n    function viewFlightStatus\n                        (\n                            address airline,\n                            string flight,\n                            uint256 timestamp                            \n                        )\n                        view\n                        external\n                        isFlightRegistered(airline, flight, timestamp)\n                        returns(uint8) \n    {\n        bytes32 flightKey = getFlightKey(airline, flight, timestamp);\n        return flights[flightKey].statusCode;\n    }\n\n   /**\n    * @dev Buy insurance for a flight\n    *\n    */   \n    function buy\n                            (   \n                                address airline,\n                                string flight,\n                                uint256 timestamp                          \n                            )\n                            external\n                            requireIsOperational\n                            requireExternallyOwnedAccount\n                            isFlightRegistered(airline, flight, timestamp)\n                            canBuy(airline, flight, timestamp)\n                            payable\n    {\n        bytes32 flightKey = getFlightKey(airline, flight, timestamp);\n        passengers[tx.origin].boughtFlightInsurance[flightKey] += msg.value;\n        passengerAddresses.push(tx.origin);\n    }\n\n    /**\n     *  @dev Credits payouts to insurees\n    */\n    function creditInsurees\n                                (\n                                    address airline,\n                                    string flight,\n                                    uint256 timestamp\n                                )\n                                public\n                                requireIsOperational\n    {\n        bytes32 flightKey = getFlightKey(airline, flight, timestamp);\n        for(uint c=0; c<passengerAddresses.length; c++) {\n            Passenger storage passenger = passengers[passengerAddresses[c]];\n            if (passenger.boughtFlightInsurance[flightKey] > 0) {\n                // credit 1.5x insurance amount\n                passenger.flightInsuranceCredit += passenger.boughtFlightInsurance[flightKey].mul(3).div(2);\n                passenger.boughtFlightInsurance[flightKey] = 0;\n            }\n        }\n    }\n\n    /**\n    *  @dev Process flight status data changes\n    */\n    function processFlightStatus\n                                (\n                                    address airline,\n                                    string flight,\n                                    uint256 timestamp,\n                                    uint8 statusCode\n                                )\n                                external\n                                requireIsOperational\n                                isFlightRegistered(airline, flight, timestamp)\n    {\n        bytes32 flightKey = getFlightKey(airline, flight, timestamp);\n        flights[flightKey].updatedTimestamp = timestamp;\n        flights[flightKey].statusCode = statusCode;\n\n        if (statusCode == STATUS_CODE_LATE_AIRLINE) {\n            creditInsurees(airline, flight, timestamp);\n        }\n    }\n\n    /**\n    *  @dev Get insuree's credit\n    */\n    function getInsureeCredit\n                                (\n                                )\n                                external\n                                view\n                                returns (uint256)\n    {\n        return passengers[tx.origin].flightInsuranceCredit;\n    }\n\n    /**\n     *  @dev Transfers eligible payout funds to insuree\n     *\n    */\n    function pay\n                            (\n                            )\n                            external\n                            canPay\n                            requireIsOperational\n                            requireExternallyOwnedAccount\n    {\n        uint256 credit = passengers[tx.origin].flightInsuranceCredit;\n        passengers[tx.origin].flightInsuranceCredit = 0;\n        tx.origin.transfer(credit); \n    }\n\n   /**\n    * @dev Initial funding for the insurance. Unless there are too many delayed flights\n    *      resulting in insurance payouts, the contract should be self-sustaining\n    *\n    */   \n    function fund\n                            (   \n                            )\n                            public\n                            canFund\n                            requireIsOperational\n                            requireExternallyOwnedAccount\n                            payable\n    {\n        airlines.count = airlines.count.add(1);\n        airlines.airlineStatus[tx.origin].participated = true;\n    }\n\n    /**\n    * @dev Fallback function for funding smart contract.\n    *\n    */\n    function() \n                            external \n                            payable \n    {\n        fund();\n    }\n\n\n}\n\n",
  "sourcePath": "/Users/janet/Desktop/udacity/blockchain-engineer/FlightSurety/contracts/FlightSuretyData.sol",
  "compiler": {
    "name": "solc",
    "version": "0.4.26+commit.4563c3fc.Emscripten.clang"
  },
  "schemaVersion": "3.4.3",
  "updatedAt": "2022-04-10T04:29:10.549Z",
  "networkType": "ethereum",
  "devdoc": {
    "methods": {
      "buy(address,string,uint256)": {
        "details": "Buy insurance for a flight    "
      },
      "creditInsurees(address,string,uint256)": {
        "details": "Credits payouts to insurees"
      },
      "fund()": {
        "details": "Initial funding for the insurance. Unless there are too many delayed flights     resulting in insurance payouts, the contract should be self-sustaining    "
      },
      "getInsureeCredit()": {
        "details": "Get insuree's credit"
      },
      "isOperational()": {
        "details": "Get operating status of contract",
        "return": "A bool that is the current operating status"
      },
      "pay()": {
        "details": "Transfers eligible payout funds to insuree    "
      },
      "processFlightStatus(address,string,uint256,uint8)": {
        "details": "Process flight status data changes"
      },
      "registerAirline(address)": {
        "details": "Add an airline to the registration queue     Can only be called from FlightSuretyApp contract    "
      },
      "registerFlight(address,string,uint256)": {
        "details": "Register a future flight for insuring.    "
      },
      "setOperatingStatus(bool)": {
        "details": "Sets contract operations on/off    * When operational mode is disabled, all write transactions except for this one will fail"
      },
      "viewFlightStatus(address,string,uint256)": {
        "details": "View flight status for DApps    "
      }
    }
  },
  "userdoc": {
    "methods": {
      "authorizeCaller(address)": {
        "notice": "*****************************************************************************************"
      }
    }
  }
}